:100000000C94D7020C94FF020C94FF020C94FF0294
:100010000C94FF020C94FF020C94FF020C94FF025C
:100020000C94FF020C94FF020C94FF020C94FF024C
:100030000C94FF020C94FF020C94FF020C94FF023C
:100040000C94F30C0C94FF020C94C10C0C949B0CBC
:100050000C94FF020C94FF020C94FF020C94FF021C
:100060000C94FF020C94FF023A3A000A416374694F
:1000700076653A0A000A436F756E746572733A0AC0
:10008000000A416374696F6E2049443A0A000A46C7
:100090006C6F772049443A0A000A54696D656F75A0
:1000A000743A0A000A4F70657261746F72433A0ABB
:1000B000000A56616C7565323A0A000A56616C7521
:1000C00065313A0A000A44657374696E6174696F38
:1000D0006E204D61736B3A0A000A44657374696E51
:1000E0006174696F6E20416464726573733A0A00CB
:1000F0000A536F75726365204D61736B3A0A000A8B
:10010000536F7572636520416464726573733A0A54
:10011000000A466C6F77456E7472793A0A003A3A73
:10012000000A4163746976653A0A000A4F70657285
:1001300061746F72433A0A000A416374696F6E20FA
:10014000547970653A0A000A416374696F6E2049F8
:10015000643A0A000A56616C756520323A0A000A50
:1001600056616C756520313A0A000A416374696F03
:100170006E456E7472793A0A003A3A000A41637425
:100180006976653A0A000A4D756C7469706C793A43
:100190000A000A45786563757465643A0A000A4C7A
:1001A0006F6F70696E673A0A000A416374696F6E17
:1001B0002049443A0A000A54696D65722049443A5C
:1001C0000A000A436F756E74646F776E3A0A000A0C
:1001D00054303A0A000A54696D6572456E7472793A
:1001E0003A0A000A466C6F7746696E643A20003A14
:1001F00000446973706C61792E2E2E20000A5365BD
:100200006E6420746F2053696E6B2E2E2E000A527E
:1002100065636569766572204F46462E2E2E000A6C
:100220005265636569766572204F4E2E2E2E000A48
:100230004578656375746520506F732041637469F8
:100240006F6E3A20000A466C6F77206E6F742066DE
:100250006F756E642E2E2E2E000000000800020125
:10026000000003040700000000000000000001027D
:100270000304051112131415160A0B0C0D0E0F0AA8
:100280005061636B61676520456D7074793F000A4A
:100290004973436F6E74726F6C6C6572203A200004
:1002A0004E6F64652061646472657373203A200048
:1002B00043757272656E742073657474696E6773CA
:1002C00020696E20454550524F4D0A000A0D7E2090
:1002D0002F20686F6D65202F206C6C696D61202F59
:1002E0002044726F70626F78202F20446F75746F96
:1002F0007261646F202F2061726475696E6F202FA8
:1003000020746573746573202F2045534457534EF2
:10031000202F2073656E736F72202F2073656E73AC
:100320006F722E696E6F202F200A0D000A546F74B1
:10033000616C2050726F6772616D6D696E672050DD
:1003400061636B616765733B20000A53746F7020B3
:1003500050726F6772616D6D696E672050484153CE
:1003600045000A53746172742050726F6772616D38
:100370006D696E67205048415345000A53746F7091
:10038000205265706F7274205048415345000A52E4
:1003900065636569766564204E65696768626F723A
:1003A000686F6F64436F6E6669726D6174696F6EBA
:1003B0003A20000A526563656976656420436F6E72
:1003C0006669726D6174696F6E3A20000A566572D3
:1003D0006966696564205265706F72742050484187
:1003E0005345005265706F727420726573656E6458
:1003F00065642E2E2E000A52656365697665642059
:100400005265706F727420436F6E6669726D6174AD
:10041000696F6E20696E2074696D653A20000A5319
:1004200074617274696E67205265706F72742050C7
:1004300048415345000A53746F7020446973636FD9
:100440007665727920436F6E74726F6C6C65722082
:100450005048415345000A526563656976657220CC
:100460004F6E2E2E2E000A5374617274696E6720CF
:10047000446973636F7665727920436F6E74726F2F
:100480006C6C6572205048415345000A466972659C
:1004900043616C6C6261636B3A0020696E3A2000C4
:1004A0000A46697265643A200050726F6772616D26
:1004B0006D696E67207061636B616765205265636B
:1004C00065697665642E2E2E0020666F72203A20B4
:1004D000000A5265636569766564205265706F72C3
:1004E0007420436F6E6669726D6174696F6E2070FF
:1004F00061636B6574206F663A20000A436F6E7407
:10050000726F6C6C65723A20000A466C6F77206ED1
:100510006F7420666F756E642E2E2E000A53696705
:100520006E616C3A20000A526563656976656420E5
:100530007061636B6574206F663A20000A43534D07
:10054000412073656E642E2E2E3C3C000A43534DB1
:10055000412073656E642E2E2E3E00686572652EF6
:100560002E2E20000A52656365697665643A200084
:1005700000000000250028002B00000000002400DF
:1005800027002A00040404040404040402020202F2
:100590000202030303030303010204081020408046
:1005A0000102040810200102040810203D0D11244E
:1005B0001FBECFEFD8E0DEBFCDBF12E0A0E0B1E0BC
:1005C000E4EDF7E302C005900D92AA30B107D9F728
:1005D00024E0AAE0B2E001C01D92A735B207E1F71E
:1005E00012E0C7EDD2E004C02197FE010E94BB1BC0
:1005F000C63DD107C9F70E947F0D0C94E81B0C94EF
:10060000000090E0FC01E856FA4F24918C579A4F75
:10061000FC018491882399F090E0880F991FFC01D8
:10062000E658FA4FA591B491FC01E059FA4F859133
:1006300094918FB7F894EC91E22BEC938FBF0895CF
:10064000AF92BF92CF92DF92EF92FF920F931F93E0
:10065000CF93DF936C017B018B01040F151FEB011E
:100660005E01AE18BF08C017D10759F06991D601D5
:10067000ED91FC910190F081E02DC6010995892B47
:1006800079F7C501DF91CF911F910F91FF90EF9006
:10069000DF90CF90BF90AF900895FC01538D448DB3
:1006A000252F30E0842F90E0821B930B541710F01D
:1006B000CF96089501970895FC01918D828D98172A
:1006C00061F0A28DAE0FBF2FB11D5D968C91928D02
:1006D0009F5F9F73928F90E008958FEF9FEF089533
:1006E000FC01918D828D981731F0828DE80FF11DFC
:1006F000858D90E008958FEF9FEF0895FC01918D17
:10070000228D892F90E0805C9F4F821B91098F730F
:100710009927089580EA93E00E947E0321E0892BC7
:1007200009F420E0822F089580E090E0892B29F0E1
:100730000E948A0381110C9400000895FC01A48D8D
:10074000A80FB92FB11DA35ABF4F2C91848D90E0F3
:1007500001968F739927848FA689B7892C93A089D6
:10076000B1898C91837080648C93938D848D981360
:1007700006C00288F389E02D80818F7D80830895F3
:10078000EF92FF920F931F93CF93DF93EC0181E0E1
:10079000888F9B8D8C8D98131AC0E889F989808188
:1007A00085FF15C09FB7F894EE89FF896083E889BB
:1007B000F98980818370806480839FBF81E090E0AD
:1007C000DF91CF911F910F91FF90EF900895F62E3A
:1007D0000B8D10E00F5F1F4F0F731127E02E8C8DD4
:1007E0008E110CC00FB607FCFACFE889F989808119
:1007F00085FFF5CFCE010E949E03F1CFEB8DEC0F6C
:10080000FD2FF11DE35AFF4FF0829FB7F8940B8F35
:10081000EA89FB8980818062CFCF0F931F93CF93AA
:10082000DF938C01D0E0C0E0F801EC0FFD1F649174
:10083000662341F080EA93E00E94C003892B11F007
:100840002196F2CFCE01DF91CF911F910F910895A4
:10085000CF93DF93EC01888D8823B9F0AA89BB89F7
:10086000E889F9898C9185FD03C0808186FD0DC0E2
:100870000FB607FCF7CF8C9185FFF2CF808185FF03
:10088000EDCFCE010E949E03E9CFDF91CF91089575
:1008900090E0FC01E75AFD4F2491FC01E856FA4F25
:1008A0003491FC01EC57FA4FE491EE23C9F0222376
:1008B00039F0233001F1A8F4213019F1223029F167
:1008C000F0E0EE0FFF1FE059FA4FA591B4918FB7FA
:1008D000F894EC91611126C030953E233C938FBF74
:1008E00008952730A9F02830C9F0243049F78091C5
:1008F00080008F7D03C0809180008F77809380007F
:10090000DFCF84B58F7784BDDBCF84B58F7DFBCF00
:100910008091B0008F778093B000D2CF8091B000EB
:100920008F7DF9CF3E2BDACF3FB7F8948091130239
:1009300090911402A0911502B091160226B5A89BC1
:1009400005C02F3F19F00196A11DB11D3FBFBA2F61
:10095000A92F982F8827BC01CD01620F711D811D21
:10096000911D42E0660F771F881F991F4A95D1F7A6
:1009700008952FB7F89460910F0270911002809142
:100980001102909112022FBF08952CB52F7D2CBD1E
:100990002CB5237F2CBD2CB52C7F2CBD2DB52E7FE7
:1009A0002DBDFC0181810C9448048EBD00000DB466
:1009B00007FEFDCF8EB508951F93CF93DF93EC0113
:1009C00070E060E00E94C50481EE0E94D504182FFB
:1009D00061E070E0CE010E94C504812FDF91CF91CC
:1009E0001F9108951F93CF93DF93EC0170E060E0B7
:1009F0000E94C50482EE0E94D504182F61E070E0C9
:100A0000CE010E94C504812FDF91CF911F910895DF
:100A1000CF93DF93EC0160E088810E944804CE010F
:100A20000E94DC04CE01DF91CF910C94F2040F936D
:100A30001F93CF93DF938C01C62FD42F70E060E01B
:100A40000E94C5048C2F8F7180620E94D504C82F2C
:100A50008D2F0E94D50461E070E0C8010E94C5049A
:100A60008C2FDF91CF911F910F910895CF92DF923C
:100A7000EF92FF920F931F93CF93DF937C01C62FCA
:100A80006A01122F70E060E00E94C5048C2F8F7104
:100A900080620E94D504082FE601115020F0899150
:100AA0000E94D504FACF61E070E0C7010E94C5043E
:100AB000802FDF91CF911F910F91FF90EF90DF90EA
:100AC000CF9008951F93CF93DF93EC01162F70E022
:100AD00060E00E94C504812F0E94D5048FEF0E9420
:100AE000D504182F61E070E0CE010E94C504812F6B
:100AF000DF91CF911F91089560E08DE394E00E9413
:100B00006205482F4C6060E08DE394E00C9417057B
:100B10000F931F93CF938C0166E08DE394E00E94C6
:100B2000620510923F04C82FC77D02301105A9F459
:100B3000C0624C2F66E08DE394E00E94170566E0EA
:100B40008DE394E00E946205C81779F010923F048B
:100B500080E0CF911F910F9108950130110549F761
:100B600081E080933F04C860E4CF81E0F2CF66E08B
:100B70008DE394E00E946205482F466066E08DE3B5
:100B800094E00C941705CF93DF93EC0160E00E9492
:100B90006205482F4D7F60E0CE01DF91CF910C942C
:100BA0001705CF92DF92EF92FF920F931F93CF938F
:100BB000DF93EC016B0160E00E9462058C7F482F9F
:100BC000426060E0CE010E94170583E592E0019744
:100BD000F1F71C81012F113208F000E28E81101B09
:100BE000811110E070E060E0CE010E94C50480EA4F
:100BF0000E94D5047601015030F0F70181917F0108
:100C00000E94D504F8CF115020F080E00E94D50456
:100C1000FACF61E070E0CE010E94C50461E08881F6
:100C20000E94480487E390E00197F1F760E0888133
:100C30000E9448040E94B9046B017C0170E060E0EE
:100C4000CE010E94C50488E00E94D504182F8FEFC2
:100C50000E94D50461E070E0CE010E94C5041073CB
:100C600059F40E94B9046C197D098E099F09643FEB
:100C700071408105910510F340E767E0CE010E94C5
:100C8000170585FB112710F991E0282F207486FFA6
:100C900090E09D83222391F070E060E0CE010E94FD
:100CA000C50480E60E94D5048FEF0E94D504082F6A
:100CB00061E070E0CE010E94C5040F83CE010E9466
:100CC000C305CE010E94DC04812FDF91CF911F91DB
:100CD0000F91FF90EF90DF90CF900895CF93DF9327
:100CE000EC0160E00E946205482F436060E0CE01A5
:100CF0000E94170540E767E0CE010E94170528858E
:100D000039854A855B856C857D858E859F85A0E0CC
:100D10000E94C81B41F025E0AE01485F5F4F6AE0CA
:100D2000CE010E943605CE010E94F204CE010E943F
:100D3000DC0461E088810E94480483E092E001972E
:100D4000F1F7DF91CF91089540912A0250912B0243
:100D5000EEE1F2E030E020E02417350744F4619141
:100D600071918617970729F02F5F3F4FF5CF8FEFCF
:100D70009FEF0895CF93C82F682F80EA93E00E94D9
:100D8000C0038C2FCC0F990BCF9108950F931F9315
:100D9000CF93DF93EC010F81188560E0C8010E94BA
:100DA0006205482F426060E0C8010E9417058F81EC
:100DB00098850E946E0681E090E099838883DF9198
:100DC000CF911F910F910895CF93DF93FB01DC0129
:100DD00093962D913C919497318320835383428342
:100DE00019966D917C91CB0180529E4FEC01288128
:100DF000398122962115310531F4888199810E9728
:100E000041F480E019C02F3F3F4F19F4DC011D92DF
:100E10001C928881998101969983888325E0880FA7
:100E2000991F2A95E1F7DB01A80FB91F80E2019015
:100E30000D928A95E1F781E0DF91CF9108951F939C
:100E4000CF93DF93EC0169E08F8198850E94620562
:100E5000182F8F8198850E9408058F8198850E94A0
:100E60006E06812F8170DF91CF911F910895FC0153
:100E7000E052FE4F208131812F3F3207E1F0DC014B
:100E8000AE51BE4F4D915C911197241735076CF010
:100E90004FEF5FEF518340834D935C9340E2240218
:100EA00090011124820F931F0895A9014F5F5F4F96
:100EB00051834083F3CF90E080E00895FC010190DE
:100EC0000020E9F73197AF01481B590BBC0180EABC
:100ED00093E00C9420038F929F92AF92BF920F9356
:100EE0001F93CF93DF93CDB7DEB7A1970FB6F894DA
:100EF000DEBF0FBECDBF19A2423008F44AE08E011A
:100F00000F5D1F4F842E912CB12CA12CA5019401B3
:100F10000E94761BE62FB901CA01EA30F4F4E05DC5
:100F2000D801EE938D01232B242B252B79F790E00C
:100F300080E0109719F0CD010E945E07A1960FB6D0
:100F4000F894DEBF0FBECDBFDF91CF911F910F91FF
:100F5000BF90AF909F908F900895E95CE1CFCF93C1
:100F6000DF930E940D04EC0182E291E00E945E0793
:100F70008C0F9D1FDF91CF9108950C945E07CF9247
:100F8000DF92EF92FF92CF93DF936C01990FEE08FF
:100F9000FF08F7FE19C06DE280EA93E00E94C003EB
:100FA000EC0166277727CB016C197D098E099F0913
:100FB0004AE00E946B078C0F9D1FDF91CF91FF903D
:100FC000EF90DF90CF9008954AE0C701B601DF911E
:100FD000CF91FF90EF90DF90CF900C946B07CF9361
:100FE000DF930E94BF07EC0182E291E00E945E075E
:100FF0008C0F9D1FDF91CF910895682F70E090E0D6
:1010000080E04AE00C946B07CF93DF930E94FD07CA
:10101000EC0182E291E00E945E078C0F9D1FDF9140
:10102000CF910895BC0190E080E04AE00C946B07FA
:10103000CF93DF93EC012F853889A0E6B2E050E032
:1010400040E01F968C911F97882309F4A1C01A963F
:10105000EC911A97EB30B8F4F0E0EF5CF74F0C949A
:10106000BB1B4C083C08450884088C089608A0085F
:10107000A9084308B408BF0818969C91189781E006
:101080009217130649F080E007C018969C911897B4
:1010900081E092171306B9F312966D917C91139724
:1010A000E881F9816E237F23ED91FC911197E6177A
:1010B000F70709F06DC016966D917C911797EA813C
:1010C000FB816E237F231496ED91FC911597E61713
:1010D000F70709F05DC0882309F45AC0EA0184E0EB
:1010E000CC0FDD1F8A95E1F7C05ADD4F8E858F5FEB
:1010F0008E8783EE91E00E940D048C850E94040887
:101100008D85DF91CF91089518969C91189781E075
:10111000921713060CF2B7CF18969C91189781E09E
:101120009217130609F00CF4B7CFADCF18969C9127
:10113000189781E09217130611F00CF0ADCFA3CFF2
:1011400018969C91189781E0921713060CF0A4CF83
:101150009ACF18968C911897821713060CF093CF9C
:1011600019969C911997E5CF18968C91189782172C
:1011700013060CF088CF19969C911997E4CF189616
:101180008C9118978217130611F00CF07CCFF3CFD7
:101190004F5F5F4F50964330510509F052CF85E2C3
:1011A00091E00E94BD0780E290E00E94120880E377
:1011B00091E00E94BD07888199810E94120889E30D
:1011C00091E00E94BD078A819B810E94120887E4FA
:1011D00091E00E94BD078C850E94FD078EE491E09E
:1011E0000E94BD078F850E94FD0789E591E00E945E
:1011F000BD0788890E94FD0789E591E00E94BD072F
:1012000089890E94FD0789E591E00E94BD078A89CE
:101210000E94FD0789E591E00E94BD078B890E942D
:10122000FD0789E591E00E94BD078C890E94FD07BA
:1012300089E591E00E94BD078D890E9404088E898E
:101240000E94FD0789E591E00E94BD078F890E94F9
:10125000FD0789E591E00E94BD07888D0E94FD078A
:1012600089E591E00E94BD07898D0E94FD0789E50F
:1012700091E00E94BD078A8D0E94FD0789E591E0FB
:101280000E94BD078B8D0E94FD0789E591E00E94B9
:10129000BD078C8D0E94FD0789E591E00E94BD0786
:1012A0008D8D0E94FD0789E591E00E94BD078E8D1E
:1012B0000E94FD0789E591E00E94BD078F8D0E9485
:1012C000FD078CE591E00E94BD078F8598899827DE
:1012D000892798270E94120880E791E00E94BD07A5
:1012E00089899A899827892798270E94120884E873
:1012F00091E00E94BD078B899C89982789279827B0
:101300000E94120888E991E00E94BD078D899E899C
:101310009827892798270E9412088CEA91E00E945A
:10132000BD078F89988D9827892798270E941208D2
:1013300080EC91E00E94BD07898D9A8D98278927BE
:1013400098270E9412088FEFDCCEAF92BF92CF9207
:10135000DF92EF92FF920F931F93CF93DF93CDB75E
:10136000DEB76B970FB6F894DEBF0FBECDBF0A8B0A
:101370001B8BB22E2C8BC32E3D8BD42E4E8BE52E89
:101380005F8B688FF72E798F8A8F9B8FA82E8AE6C6
:1013900091E00E940D048FE591E00E940D04C801C8
:1013A0000E94120884E591E00E940D048B2D9C2D73
:1013B0000E94120887E491E00E940D048D2D0E9486
:1013C000FD0788E391E00E940D048E2D0E94FD0729
:1013D0008BE291E00E940D048F2D0E94FD0781E2B7
:1013E00091E00E940D048A2D90E00E94EF07888D05
:1013F0000A831983BC82CB82DD82EE828F83F886DA
:10140000A9868E010F5F1F4F7E0181E1E80EF11C5E
:10141000F80181918F010E94FD078EE191E00E9409
:101420000D040E151F05A1F76B960FB6F894DEBFDD
:101430000FBECDBFDF91CF911F910F91FF90EF9025
:10144000DF90CF90BF90AF9008952F923F924F9230
:101450005F926F927F928F929F92AF92BF92CF9244
:10146000DF92EF92FF920F931F93CF93DF93CDB74D
:10147000DEB7A1970FB6F894DEBF0FBECDBFAA8A24
:10148000BB8ACC8ADD8AEE8AFF8A088F198F2A8F61
:101490003B8F4C8F5D8F6E8F7F8F88A399A381E1E7
:1014A00091E00E940D048FEF90E00E940D042A88C5
:1014B0003B88C1010E94120880EF90E00E940D0459
:1014C0004C885D88C2010E94120889ED90E00E945C
:1014D0000D046E887F88C3010E94120885EC90E09D
:1014E0000E940D04888C998CC4010E9412088BEB19
:1014F00090E00E940D04AA8C8A2D0E94FD0781EBCA
:1015000090E00E940D04BB8C8B2D0E94FD0784EAA5
:1015100090E00E940D04CC8C8C2D0E94FD0789E97F
:1015200090E00E940D04DD8C8D2D0E94FD078EE859
:1015300090E00E940D04EE8C8E2D0E94FD0781E844
:1015400090E00E940D04FF8C8F2D0E94FD0785E71F
:1015500090E00E940D0408A1802F0E94FD078BE6F9
:1015600090E00E940D0419A1812F90E00E94EF07E6
:101570002A8239824C825B826E827D8288869F823B
:10158000A986BA86CB86DC86ED86FE860F87188B09
:101590008E010F5F1F4F7E0181E1E80EF11CF80103
:1015A00081918F010E94FD0788E690E00E940D0462
:1015B0000E151F05A1F7A1960FB6F894DEBF0FBE5A
:1015C000CDBFDF91CF911F910F91FF90EF90DF90F2
:1015D000CF90BF90AF909F908F907F906F905F90D3
:1015E0004F903F902F9008954F925F926F927F920D
:1015F0008F929F92AF92BF92CF92DF92EF92FF9223
:101600000F931F93CF93DF93CDB7DEB7A1970FB69C
:10161000F894DEBF0FBECDBFAA8ABB8ACC8ADD8A12
:10162000EE8AFF8A088F198F2A8F3B8F4C8F5D8F30
:101630006E8F7F8F88A399A385ED91E00E940D04A2
:101640008FEC91E00E940D044A885B886C887D884D
:101650004AE0B201C3010E946B0782EC91E00E9454
:101660000D048E889F88A88CB98C4AE0B401C5010E
:101670000E946B0786EB91E00E940D04CA8C8C2DB2
:101680000E94FD0789EA91E00E940D04DB8C8D2DFC
:101690000E94FD078EE991E00E940D04EC8C8E2DD6
:1016A0000E94FD0782E991E00E940D04FD8C8F2DC0
:1016B0000E94FD0786E891E00E940D040E8D802FA8
:1016C0000E94FD078CE791E00E940D041F8D812F81
:1016D00090E00E94EF074C825B826A827982888662
:1016E0009F82AE82BD82C986DA86EB86FC860D8734
:1016F0001E878E010F5F1F4F7E0181E1E80EF11CF6
:10170000F80181918F010E94FD0789E791E00E9415
:101710000D040E151F05A1F7A1960FB6F894DEBFB4
:101720000FBECDBFDF91CF911F910F91FF90EF9032
:10173000DF90CF90BF90AF909F908F907F906F90F1
:101740005F904F900895CF92DF92EF92FF920F93A8
:101750001F93CF93DF938C01EB018AE0D82E92E0A8
:10176000E92EF12C27E3C22ED09EF001D19EF00D80
:101770001124E25DFD4F8581873071F178F482306C
:1017800009F47DC0833009F49EC0DF91CF911F9191
:101790000F91FF90EF90DF90CF9008958D3009F476
:1017A0005AC08E3009F4A5C08C3079F7CE010E9462
:1017B000AC1A8FE192E00E94AF0780919D03909157
:1017C0009E030E94C606809118028823F1F21092AF
:1017D0000D0210920C02D9CFCE010E94AC1A80E209
:1017E00090E00E94101AEC01E0919D03F0919E039D
:1017F00083A194A19983888380919103909192030E
:101800009B838A831C860E94F518B7010E94A71B40
:10181000865A8F87C88ACE010E941808082F10E0C8
:101820000F3F110561F485E492E0DF91CF911F91A4
:101830000F91FF90EF90DF90CF900C94AF078FE265
:1018400092E00E940D04C8010E94120882E291E019
:101850000E945E0789CFCE010E94AC1A8EE092E012
:101860000E94AF07C0919D03D0919E038F81988500
:101870000E94C30584E090E09983888386CF8DEF32
:1018800091E00E94AF0780919103909192039F8312
:101890008E8380919D0390919E03FC0123A134A12E
:1018A0003D832C834091950350919603BE010E9485
:1018B000E40680910A0290910B02019690930B022C
:1018C00080930A0262CF85ED91E00E945E0782E27A
:1018D00091E00E945E078C819D819F838E830091A1
:1018E0009D0310919E030E94A406AC01BE01C80195
:1018F000DECF81EF91E00E94AF078F850E94FD0748
:101900008FEE91E00E940D0488890E940408809166
:101910000C0290910D02019690930D0280930C029F
:10192000CE01DF91CF911F910F91FF90EF90DF904B
:10193000CF900C94AC1A1F920F920FB60F921124F5
:101940002F933F934F935F936F937F938F939F93C7
:10195000AF93BF93EF93FF9380EA93E00E949E03BF
:10196000FF91EF91BF91AF919F918F917F916F9177
:101970005F914F913F912F910F900FBE0F901F904D
:1019800018951F920F920FB60F9211242F938F93D9
:101990009F93EF93FF93E091B003F091B1038081A7
:1019A000E091B603F091B70382FD1BC09081809156
:1019B000B9038F5F8F732091BA03821741F0E091D2
:1019C000B903F0E0E056FC4F958F8093B903FF9187
:1019D000EF919F918F912F910F900FBE0F901F90BD
:1019E00018958081F4CF1F920F920FB60F92112499
:1019F0002F933F938F939F93AF93BF9380910F0249
:101A000090911002A0911102B091120230910E0239
:101A100023E0230F2D3758F50196A11DB11D20930A
:101A20000E0280930F0290931002A0931102B093C4
:101A300012028091130290911402A0911502B091AC
:101A400016020196A11DB11D8093130290931402FA
:101A5000A0931502B0931602BF91AF919F918F9101
:101A60003F912F910F900FBE0F901F90189526E871
:101A7000230F0296A11DB11DD2CFE0EAF3E013823D
:101A8000128288EE93E0A0E0B0E084839583A68381
:101A9000B78384E191E09183808385EC90E0958722
:101AA000848784EC90E09787868780EC90E0918B28
:101AB000808B81EC90E0938B828B82EC90E0958B15
:101AC000848B86EC90E0978B868B118E128E138E12
:101AD000148EEDE3F4E087E0808389E0818381E088
:101AE0008283138280E28483158216821086118697
:101AF0001286138614861586168617860895CF9348
:101B0000DF93CDB7DEB7CF54D1090FB6F894DEBF5F
:101B10000FBECDBF789484B5826084BD84B58160EA
:101B200084BD85B5826085BD85B5816085BD8091A8
:101B30006E00816080936E00109281008091810020
:101B40008260809381008091810081608093810018
:101B5000809180008160809380008091B1008460DA
:101B60008093B1008091B00081608093B00080913B
:101B70007A00846080937A0080917A0082608093FA
:101B80007A0080917A00816080937A0080917A0057
:101B9000806880937A001092C1001092990310928D
:101BA0009A0310929B0310929C0310921D021092B4
:101BB0001C0280E197E2909398038093970385E05D
:101BC0008093E90211E01093EB021092EC020E9464
:101BD000B904685D7C4D8F4F9F4F6093E102709315
:101BE000E2028093E3029093E4021092E5021092E5
:101BF000E6021092E7021092E8021093ED021093B1
:101C0000EE0206E00093F9021093FB021092FC0230
:101C10000E94B904685D7F458F4F9F4F6093F1022A
:101C20007093F2028093F3029093F4021092F50203
:101C30001092F6021092F7021092F8021093FD0231
:101C40001093FE028FEF9FEF90931F0280931E026E
:101C5000909321028093200290932302809322028A
:101C6000909325028093240290932702809326026A
:101C7000909329028093280210922B0210922A023C
:101C80000E949404E091B003F091B10382E080835C
:101C9000E091AC03F091AD031082E091AE03F091BE
:101CA000AF0380E180831092B803E091B403F09118
:101CB000B5030083E091B203F091B30380818061AA
:101CC0008083E091B203F091B303808188608083C8
:101CD000E091B203F091B303808180688083E0914A
:101CE000B203F091B30380818F7D808370E060E068
:101CF0008AEB96E00E94A9198CEC92E00E940D04F8
:101D000090E080E00E943C1B8093190281E090E00B
:101D10000E943C1B80931A0280EB92E00E940D040B
:101D200080EA92E00E940D048091190290911A02BB
:101D30000E9412088091190290911A029093010159
:101D400080930001892B09F01CC210931802809126
:101D50003D040E94010380913E040E9401031FB7CD
:101D6000F89480911702811124C0EEE8F5E0849187
:101D7000E2EAF5E09491E82FF0E0EE0FFF1FE6585D
:101D8000FA4FA591B491EC91E92321F461E08AE046
:101D90000E9448048AE00E9401038CB580618CBDDA
:101DA0008CB580648CBD8DE00E9401038BE00E94A5
:101DB0000103809117028F5F809317021FBF60E0BD
:101DC00080913D040E94480461E070E08DE394E05E
:101DD0000E94C5040E9494042B013C01F5E0CF2E23
:101DE000D12CE12CF12C0E94940464197509860908
:101DF0009709683E734081059105A8F321E0C21A56
:101E0000D108E108F10838EE430E33E0531E611C9F
:101E1000711CC114D104E104F10429F74FE464E01A
:101E20008DE394E00E9417050E94B70582E090E0E0
:101E30000E948805882319F081E08093400490E097
:101E400080E00E9488050E947C0540E06CE18DE303
:101E500094E00E94170540E767E08DE394E00E945C
:101E600017054CE465E08DE394E00E9417058DE3CF
:101E700094E00E94F2048DE394E00E94DC040E944E
:101E8000B70581E090E00E9488050E947C054CE047
:101E900065E08DE394E00E94170540E064E08DE387
:101EA00094E00E94170540E061E08DE394E00E9419
:101EB000170585E290E00E94101A8C0180910001C4
:101EC00090910101D80114961C921E92139721E063
:101ED00012962C93129794969C938E93939784EEDC
:101EE00091E00E94101AFC01E052FE4F2FEF3FEFED
:101EF00031832083329631832083F8019287818752
:101F00008FE792E00E940D04D8011996ED91FC91A3
:101F1000E052FE4F81E090E0208131812F3F3F4F22
:101F200011F090E080E00E94EF078DE394E0F8016B
:101F3000908787830E946E0680E480937C00809166
:101F40007A00806480937A0080917A0086FDFCCFCD
:101F50008091780060917900762F682F072E000C11
:101F6000880B990B611571058105910511F00E948F
:101F7000A01981E090E0D80111969C938E9317965A
:101F8000ED90FC9082ED8CAF80EF8DAF8EAF8FAF78
:101F900021968FAF219722961FAE229723961FAED0
:101FA000239724961FAE249725E0AE01445C5F4F33
:101FB0006AE0C7010E94360525E0AE01445C5F4F30
:101FC00060E1C7010E943605F7014481403208F004
:101FD00040E261E1C7010E941705D8011796ED9014
:101FE000FC9081EE25968FAF259780EF26968FAFD8
:101FF000269727968FAF279728968FAF28972996F1
:102000008FAF29972A961FAE2A972B961FAE2B9734
:102010002C961FAE2C97EAE7F2E0649125E0AE0122
:102020004C5B5F4FC7010E943605E4E7F2E0649124
:10203000F7014481C7010E94170562E0C7010E94B1
:102040006205EEE6F2E0E49141E050E001C0440FA9
:10205000EA95EAF7482B62E0C7010E941705D8010C
:1020600054961C921E92539756961C921E92559708
:1020700058961C921E925797F801118E128E138E4D
:10208000148E10939E0300939D038FE892E00E94AC
:102090000D048091180290E00E94BF0780EA93E04F
:1020A0000E942804E0919D03F0919E0388EE93E046
:1020B00090A3878F83E090E092A381A384EF91E0C7
:1020C000968F858F0E94B90481E080939F03809151
:1020D0009F03882309F4C4C180909D0390909E03C0
:1020E0000E9494046B017C01D4018D919C91119705
:1020F000019709F0A1C017960D911C9170E060E066
:10210000C8010E94C5048FEF0E94D504782E61E0BB
:1021100070E0C8010E94C50476FE8EC040E467E00E
:10212000C8010E94170575FE05C040E267E0C801BE
:102130000E94170580E290E00E94101A3C01D40131
:102140001796ED90FC90F7011481012F113208F0E1
:1021500000E2D70116968C91811116C0101B70E019
:1021600060E0C7010E94C50481E60E94D5046301B6
:10217000015060F08FEF0E94D504F60181936F014A
:10218000F7CF10921802E3CD10E0E9CF115020F004
:102190008FEF0E94D504FACF61E070E0C7010E9482
:1021A000C50467E1C7010E94620584E695E00E94CC
:1021B0000D040E9494044AE00E946B07D30112961A
:1021C0008D919C91F40123A134A18217930711F002
:1021D000019659F569E0D40117968D919C910E9462
:1021E0006205182F117086E295E00E940D04F3013C
:1021F000808191810E9412088CE195E00E940D047B
:10220000812F90E00E94BF07D3011C968C9190E033
:10221000009709F037C1C3010E9418088F3F09F0E9
:102220002CC189E095E00E94AF07C3010E94AC1A5F
:102230000E9494046B017C01D40112968C91129738
:1022400081114CC41996ED91FC91E052FE4F8081B2
:1022500091810196A9F08BE595E00E940D04D401CF
:102260001996ED91FC91E052FE4F81E090E02081C3
:1022700031812F3F3F4F11F490E080E00E94BF0773
:10228000F40160807180F1E06F16710409F056C0AE
:10229000D40119960D911C91F801E052FE4F8081F6
:1022A00091818F3F980709F449C045E0880F991F35
:1022B0004A95E1F7080F191FF401878190850E9464
:1022C00008058CE495E00E940D040E9494044AE005
:1022D0000E946B07B801D40117968D919C910E94C2
:1022E000D105F40121853285882309F4EBC371827D
:1022F0006082C9010E943707D40117968D919C9185
:102300000E946E06F401858996890196968B858BCD
:10231000818D928DA38DB48DF801408551856285A4
:102320007385841B950BA60BB70B8C0D9D1DAE1DE5
:10233000BF1DF401818F928FA38FB48F0E94B904C7
:102340000091990310919A0320919B0330919C0373
:102350006B017C01C00ED11EE21EF31E6096CCAE56
:10236000DDAEEEAEFFAE609721E9822E22E0922E26
:102370003324339422242A94D4011D968C911D97E2
:10238000882309F464C01B969C911B971A968C9124
:102390001A97981708F05BC01C96AC91F401208145
:1023A000318142815381B0E00E94631B6096CCACC6
:1023B000DDACEEACFFAC60976C157D058E059F051E
:1023C00008F045C080EA94E00E940D048091A902C3
:1023D0000E94FD078AE994E00E940D040E94940483
:1023E0004AE00E946B0782E291E00E945E07D401FE
:1023F00018961C91153008F06CC480E290E00E94A1
:10240000101ABC01F401818590E00E94A30BD40155
:102410001B968C911B978F5F1B968C931B971C961A
:10242000AC91F4012481358146815781B0E00E944E
:10243000631B6096CCACDDACEEACFFAC60976C0D72
:102440007D1D8E1D9F1D6083718382839383B0E108
:102450008B0E911CE1E9F3E0E815F90509F08CCF4A
:1024600080E090E0892B09F432CE0E948A03882311
:1024700009F42DCE0E9400002ACEB30190E00E9404
:10248000A30BD3CEF301228133812F3F3F4F09F0BD
:1024900063C1019709F060C1112309F45DC10E9475
:1024A000B904E0EECE2EEEE2DE2EE12CF12CC61ABF
:1024B000D70AE80AF90AD701C601809399039093D5
:1024C0009A03A0939B03B0939C0389EE91E00E9432
:1024D000BD07D3018D919C910E941208F3014081A8
:1024E000518180912A0290912B028630910564F4EB
:1024F000FC01EE0FFF1FE25EFD4F5183408301960A
:1025000090932B0280932A02D3011E968C911E97E2
:1025100090E0209197033091980321503109821760
:10252000930708F019C1019690939803809397033D
:10253000509396034093950314960D911C9110931C
:1025400094030093930310939203009391038BEFF2
:1025500094E00E940D04C8010E941208E0909D03BF
:10256000F0909E03F70183A194A1D30111969C934F
:102570008E93809197031E968C934FEF5FEFB3017C
:10258000C7010E94E40687E08093090311E01093DD
:102590000B0310920C030E94B904AB01BC01F701BC
:1025A00023A134A108EC029FC001039F900D1124C8
:1025B000B0E0A0E0885B9E48AF4FBF4F840F951FEF
:1025C000A61FB71F8093010390930203A0930303F8
:1025D000B0930403109205031092060310920703B0
:1025E0001092080310930D0310930E03F8E0F0937C
:1025F000190310931B0310921C030E94B904AB0132
:10260000BC01D70193962D913C91029FC001039F7D
:10261000900D1124B0E0A0E0885D9F45AF4FBF4F03
:10262000840F951FA61FB71F809311039093120369
:10263000A0931303B0931403109215031092160382
:10264000109217031092180310931D0310931E038A
:1026500089E08093290310932B0310922C030E948E
:10266000B90460527A458E4F9F4F60932103709357
:102670002203809323039093240310922503109246
:102680002603109227031092280310932D03109312
:102690002E03BAE0B093390310933B0310923C032E
:1026A0000E94B904685376458E4F9F4F6093310363
:1026B0007093320380933303909334031092350365
:1026C00010923603109237031092380310933D0393
:1026D00010933E038CE08093590310935B03109298
:1026E0005C030E94B904605C7F468D4F9F4F6093EE
:1026F00051037093520380935303909354031092A9
:1027000055031092560310925703109258031093DA
:102710005D0310935E038DE08093690310936B0358
:1027200010926C030E94B904685D7B468D4F9F4FE9
:1027300060936103709362038093630390936403D7
:10274000109265031092660310926703109268035B
:1027500010936D0310936E03E0919D03F0919E031F
:10276000D30112962D913C91139783A194A1281720
:10277000390709F050C01C968C918B3009F04BC082
:1027800081ED94E00E940D04F301808191810E940B
:10279000120889EC94E00E940D04D30116968D91E5
:1027A0009C910E94120880912A0290912B028630FF
:1027B00091057CF4FC01EE0FFF1FE25EFD4FD3019B
:1027C0002D913C9131832083019690932B0280932D
:1027D0002A02F3018681978100919D0310919E0347
:1027E0002091930330919403D80193964D915C917D
:1027F0008417950709F051C041E0409390029583FA
:102800008483378326834091950350919603B301C7
:10281000C8010E94E406F301268137818091930369
:102820009091940328173907B9F480919D039091F2
:102830009E0342815381DC0193962D913C91421776
:10284000530751F424852A3039F44091950350916F
:102850009603B3010E94E406F30184858D50833012
:1028600008F0E3CC2281338100919D0310919E03F7
:10287000D80193968D919C912817390709F0D5CCF2
:10288000868197812817390799F00E94A406AC0128
:10289000B301C8010E94E406C8CC8217930709F46B
:1028A000B2CF0E94A4068F3F9807B1F2AC01AFCF20
:1028B00089EA94E00E94AF07F30184858D3009F026
:1028C0005BC03F96DE011196C301809621912D9346
:1028D000E817F907D9F709811A811027012710276E
:1028E000AB81BC81BA27AB27BA274D805E805424C8
:1028F000452454242F8038843224232432242985EB
:102900003A854B855C856D857E858F8591E0E8896C
:10291000E11101C090E0F0E16F9F70011124F70117
:10292000E05AFD4F11830083B383A2835582448212
:10293000378226822087318742875387648775874D
:1029400086879787A02E1BA30AA3CA2EBDA3ACA37C
:10295000E42C5FA24EA2022D39A628A62AA73BA7E7
:102960004CA75DA76EA77FA788AB99ABBBA0DDA0E6
:10297000FFA019A50E94250AD3011C968C918F30C7
:1029800009F040C0F3013F96DE011196C301809625
:1029900021912D93E817F907D9F78B819C8198270E
:1029A00089279827AD817E816F81588541E02985EF
:1029B000211101C040E029813A81322723273227A3
:1029C0003BAB2AAB9DAB8CABAEAB7FAB68AF59AF2B
:1029D0004AAFEAE0EA9FD0011124A25DBD4FFE019B
:1029E000F2968AE001900D928A95E1F70AA91BA957
:1029F0002CA93DA94EA95FA968AD79AD8AAD9BAD63
:102A00000E94A509D3011C968C918E3009F050C00C
:102A1000F3017096DE011296C301809621912D93E9
:102A20008E179F07D9F7A985EA855B854C853D857B
:102A300021E08E85811101C020E069817A818B813E
:102A40009C810E94C11B6B017C016D817E818F8105
:102A500098850E94C11BCA8ADB8AEC8AFD8A6E8B2C
:102A60007F8B888F998FAA8FEB8F5C8F4D8F3E8FD6
:102A70002F8FE0E1AE9FD0011124AF56BD4F80E112
:102A8000FE01729601900D928A95E1F7AA88BB88A3
:102A9000CC88DD88EE88FF88088D198D2A8D3B8DC6
:102AA0004C8D5D8D6E8D7F8D88A199A10E94F40A59
:102AB00080912C0290912D02019690932D0280938B
:102AC0002C02B3CB71826082C9010E943707F401E6
:102AD000838994890196948B838B30CC8D919C91C2
:102AE00011970197E9F51996ED91FC91E052FE4F8F
:102AF00080819181019609F421CCC4010E941F07B5
:102B000081112EC022E030E0F401318320830E9445
:102B1000511922E030E040E050E00E94441B48EEB2
:102B200053E0649F9001659F300D749F300D112418
:102B3000C9018C509E4F092E000CAA0BBB0B8C0DAB
:102B40009D1DAE1DBF1DF40183879487A587B687A1
:102B500083819481892B21F4C786D08AE18AF28A05
:102B6000F40180819181029709F0E8CB83859485F7
:102B7000A585B685C816D906EA06FB0608F4DECB9D
:102B8000C4010E941F07882381F081E090E0D401F6
:102B900011969C938E9313968D919C911497019608
:102BA00014969C938E931397C9CBF40101851285DB
:102BB000F801E052FE4F808191818F3F980709F420
:102BC0005EC035E0880F991F3A95E1F7080F191F8D
:102BD000D40117968D919C910E940805B801F401CB
:102BE000878190850E94D105782E8CE395E00E9424
:102BF0000D040E9494044AE00E946B0781E090E07B
:102C0000D40111969C938E937720E1F119968D91C2
:102C10009C910E943707F401858996890196968BCD
:102C2000858B8789908D23813481820F931F908FAC
:102C3000878B818D928DA38DB48D8C0D9D1DAE1DC6
:102C4000BF1DF80140855185628573856C017D014A
:102C5000C41AD50AE60AF70AD4015996CD92DD9234
:102C6000ED92FC925C9717968D919C910E946E0656
:102C7000F40114821382C8010E94AC1A5FCB10E0E9
:102C800000E0A6CF17968D919C910E946E06F401EC
:102C9000818592850E943707D40153968D919C912E
:102CA0005497019654969C938E93539757968D9173
:102CB0009C91589713962D913C911497820F931FD6
:102CC00058969C938E93579714961C921E92139726
:102CD000D2CF8BE894E00E940D04812F90E00E94F7
:102CE000BF071550183008F092CBE12FF0E0E558FF
:102CF000F94E0C94BB1B831698169D162217D317FA
:102D0000F0170712131881E090E090931D02809352
:102D10001C0286E694E00E940D0486E594E00E9481
:102D20000D0480919D0390919E030E94C6066FCB77
:102D300085E394E00E94AF076ACB92E0C92ED12CC4
:102D4000D0921D02C0921C021092900210921B029F
:102D50008EE194E00E94AF0780E290E00E94101A9A
:102D6000DC0100919D0310919E03F80183A194A1C1
:102D700015969C938E93149783A194A111969C937E
:102D80008E93E0909303F09094031796FC92EE924A
:102D90001697F8E01C96FC931C97C0902A02D090DE
:102DA0002B022EE132E0CD0150E040E002964C15BE
:102DB0005D055CF4F901608171812E5F3F4FFC017C
:102DC000758766874F5F5F4FF1CFF601D7FE02C070
:102DD000F0E0E0E0EE0FFF1FEC30F10549F03F9628
:102DE000EA0FFB1FCD014B962192E817F907E1F797
:102DF000C0909503D0909603A601BD01C8010E9422
:102E0000E40680E290E00E94101AFC01D80193963B
:102E10008D919C9194979583848393968D919C91A9
:102E200091838083F782E682B3E0B487A0E9EA2E3B
:102E3000E786B5E8FB2EF08AA601BF01C8010E9413
:102E4000E406E5CA80911C0290911D02029709F0E8
:102E5000AAC080919002882369F086EF93E00E94D7
:102E60000D0481E090E00E94BF078CEC93E00E948B
:102E70000D04CDCA80E290E00E94101ADC0100919E
:102E80009D0310919E03F80183A194A115969C9334
:102E90008E93149783A194A111969C938E93E090A6
:102EA0009303F09094031796FC92EE921697F8E035
:102EB0001C96FC931C97C0902A02D0902B022EE106
:102EC00032E0CD0150E040E002964C155D055CF427
:102ED000F901608171812E5F3F4FFC017587668724
:102EE0004F5F5F4FF1CFF601D7FE02C0F0E0E0E0A8
:102EF000EE0FFF1FEC30F10549F03F96EA0FFB1F84
:102F0000CD014B962192E817F907E1F7C0909503A0
:102F1000D0909603A601BD01C8010E94E40680E29C
:102F200090E00E94101AFC01D80193968D919C911B
:102F300094979583848393968D919C9191838083BC
:102F4000F782E682B3E0B48755E8E52EE786A6016E
:102F5000BF01C8010E94E40683EE93E00E940D04C5
:102F600068E0F62EF092190330921B0310921C03B6
:102F70000E94B9046053784F8F4F9F4F60931103A5
:102F8000709312038093130390931403109215030C
:102F900010921603109217031092180330921D031B
:102FA00030921E0362CF83EB93E00E940D04809168
:102FB000900290E00E94BF078EE893E00E940D040B
:102FC00080911B0290E00E94BF078BE793E00E9474
:102FD000AF0723E030E030931D0220931C0217CA94
:102FE00082E693E00E940D0410922D0210922C02B2
:102FF00010926F0210927F0210928F02109236028E
:103000001092400210924A021092540210925E02F4
:1030100010929E021092AE021092BE021092CE0248
:103020001092DE02F4C98AE493E00E94AF078CE2BA
:1030300093E00E940D0480912C0290912D020E9439
:10304000BF0740E6442E42E0542E712C612CD20181
:103050001F968C918823D1F0F30134E0EE0FFF1F0F
:103060003A95E1F7E05AFD4FA080B180C280D3804D
:10307000E480F5800681178120853185428553855E
:1030800064857585868597850E94250ABFEF6B1A32
:103090007B0AE0E14E0E511CF3E06F167104B9F6A5
:1030A0002EE2C22E22E0D22EF12CE12CD60118966F
:1030B0008C918823A1F0BAE0BE9DF001BF9DF00D78
:1030C0001124E25DFD4F0081118122813381448111
:1030D000558166817781808591850E94A509EFEFF2
:1030E000EE1AFE0AFAE0CF0ED11C25E0E216F1043A
:1030F000E9F691E9492E92E0592E712C612CD2010A
:103100001D968C918823D1F0F30184E0EE0FFF1F10
:103110008A95E1F7EF56FD4FA080B180C280D38041
:10312000E480F580068117812085318542855385AD
:1031300064857585868597850E94F40ABFEF6B1AB2
:103140007B0AE0E14E0E511CF0E16F167104B9F6F6
:103150005EC98F929F92AF92BF92CF92DF92EF9211
:10316000FF92CF93DF93EC01688179818A819B8103
:10317000611571058105910521F464E279ED8BE516
:1031800097E02DE133EF41E050E00E94441B4901FC
:103190005A019B01AC01A7EAB1E40E94631B6B01D9
:1031A0007C01ACEEB4EFA50194010E94711BDC011F
:1031B000CB018C0D9D1DAE1DBF1DB7FF03C0019738
:1031C000A109B04888839983AA83BB839F77DF9145
:1031D000CF91FF90EF90DF90CF90BF90AF909F90F6
:1031E0008F9008950E94A918089582E091E00E94AE
:1031F000A9180895B0E0A0E0809302019093030124
:10320000A0930401B093050108958F929F92AF920D
:10321000BF92CF92DF92EF92FF92CF93DF93EC01B8
:10322000688179818A819B8161157105810591058C
:1032300021F464E279ED8BE597E02DE133EF41E095
:1032400050E00E94441B49015A019B01AC01A7EACE
:10325000B1E40E94631B6B017C01ACEEB4EFA501ED
:1032600094010E94711BC60ED71EE81EF91EF7FEC0
:1032700006C081E0C81AD108E10880E8F80AC882CF
:10328000D982EA82FB82C701B6019F77DF91CF9195
:10329000FF90EF90DF90CF90BF90AF909F908F9076
:1032A00008958F929F92AF92BF92CF92DF92EF924A
:1032B000FF92609106017091070180910801909141
:1032C0000901611571058105910521F464E279ED2B
:1032D0008BE597E02DE133EF41E050E00E94441B85
:1032E00049015A019B01AC01A7EAB1E40E94631BAA
:1032F0006B017C01ACEEB4EFA50194010E94711B3F
:10330000C60ED71EE81EF91EF7FE06C081E0C81AD9
:10331000D108E10880E8F80AC0920601D0920701BE
:10332000E0920801F0920901C701B6019F77FF9072
:10333000EF90DF90CF90BF90AF909F908F900895C7
:10334000609306017093070180930801909309012F
:1033500008950F931F93CF93DF93009759F461154E
:10336000710541F4F0E0E0E0CF01DF91CF911F91D2
:103370000F9108958B01EC016EE070E081E090E028
:103380000E94F419FC01892B69F380E883830115FD
:10339000110571F01387028781E8838380914D04C2
:1033A00090914E04892B21F4F0934E04E0934D0448
:1033B0002097D1F2D187C0878381826083838091F7
:1033C0004F0490915004892B79F6F0935004E093C8
:1033D0004F048091510490915204892B29F6F09367
:1033E0005204E0935104C0CF0F931F93CF93DF9308
:1033F000869F8001879F100D969F100D1124C80194
:103400000E94101AEC01009729F0A80170E060E01A
:103410000E94351BCE01DF91CF911F910F9108952E
:103420000F931F93CF93DF938230910510F482E0C6
:1034300090E0E0915504F091560430E020E0B0E0D7
:10344000A0E0309799F42115310509F44AC0281BF2
:10345000390B24303105D8F58A819B8161157105BE
:1034600089F1FB0193838283FE0111C04081518168
:103470000281138148175907E0F04817590799F45A
:10348000109761F012960C93129713961C93329634
:10349000CF01DF91CF911F910F91089500935504B3
:1034A00010935604F4CF2115310551F042175307FC
:1034B00038F0A901DB019A01BD01DF01F801C1CF9C
:1034C000EF01F9CF9093560480935504CDCFFE01C0
:1034D000E20FF31F8193919322503109398328839E
:1034E000D7CF2091530430915404232B41F42091E1
:1034F0000C0130910D01309354042093530420911A
:103500000A0130910B012115310541F42DB73EB769
:1035100040910E0150910F01241B350BE091530493
:10352000F0915404E217F307A0F42E1B3F0B281769
:10353000390778F0AC014E5F5F4F2417350748F02C
:103540004E0F5F1F50935404409353048193919303
:103550009FCFF0E0E0E09CCFCF93DF930097E9F0BE
:10356000FC01329713821282A0915504B091560447
:10357000ED0130E020E01097A1F420813181820F2D
:10358000931F20915304309154042817390709F0F0
:1035900061C0F0935404E0935304DF91CF910895F8
:1035A000EA01CE17DF07E8F54A815B819E014115EC
:1035B0005105B1F7E901FB83EA8349915991C40FA1
:1035C000D51FEC17FD0761F4808191810296840F6D
:1035D000951FE90199838883828193819B838A83E4
:1035E000F0E0E0E012968D919C9113970097B9F569
:1035F0002D913C911197CD010296820F931F20913E
:103600005304309154042817390739F6309751F58F
:103610001092560410925504B0935404A09353048E
:10362000BCCFD383C28340815181840F951FC817BB
:10363000D90761F44E5F5F4F88819981480F591F08
:10364000518340838A819B81938382832115310535
:1036500009F0B0CFF0935604E09355049ECFFD01DE
:10366000DC01C0CF13821282D7CFDC0101C06D9381
:1036700041505040E0F70895F999FECF92BD81BDC9
:10368000F89A992780B50895052E97FB1EF40094AB
:103690000E945B1B57FD07D00E94761B07FC03D0DE
:1036A0004EF40C945B1B50954095309521953F4FFF
:1036B0004F4F5F4F089590958095709561957F4F1E
:1036C0008F4F9F4F08950E94981BA59F900DB49F08
:1036D000900DA49F800D911D11240895B7FF0C94A7
:1036E000631B0E94631B821B930B0895A1E21A2E99
:1036F000AA1BBB1BFD010DC0AA1FBB1FEE1FFF1F96
:10370000A217B307E407F50720F0A21BB30BE40BE5
:10371000F50B661F771F881F991F1A9469F760952C
:103720007095809590959B01AC01BD01CF010895E6
:10373000A29FB001B39FC001A39F700D811D1124F2
:10374000911DB29F700D811D1124911D089597FB4D
:10375000072E16F4009407D077FD09D00E94D41BE1
:1037600007FC05D03EF4909581959F4F0895709584
:1037700061957F4F0895EE0FFF1F0590F491E02DA6
:103780000994692796276927782787277827089536
:103790000024A7FD00942A17300540055005600558
:1037A0007005800590050895AA1BBB1B51E107C059
:1037B000AA1FBB1FA617B70710F0A61BB70B881FC1
:1037C000991F5A95A9F780959095BC01CD01089550
:0437D000F894FFCF9B
:1037D4000100010000000100000000005704800007
:1037E40000000000C00320034D0328047E035C0393
:1037F40070030D0A000A53697A65206F663A200047
:103804000A536F757263653A000A44657374696E8E
:103814006174696F6E3A000A547970653A000A550A
:10382400736572446174613A002C20000A55736513
:1038340072446174612028696E742920303A200032
:103844000A55736572446174612028696E74292075
:10385400323A20000A557365724461746120286904
:103864006E742920343A20000A55736572446174D9
:10387400612028696E742920363A20000A55736540
:1038840072446174612028696E742920383A2000DA
:103894000A55736572446174612028696E74292025
:1038A40031303A200052657475726E20746F204F67
:1038B400726967696E2E2E2E000A526563656976F9
:1038C400656420646973636F7665727920706163DF
:0A38D4006B6574206F663A20000057
:107E0000112484B714BE81FFF0D085E080938100F7
:107E100082E08093C00088E18093C10086E0809377
:107E2000C20080E18093C4008EE0C9D0259A86E02C
:107E300020E33CEF91E0309385002093840096BBD3
:107E4000B09BFECF1D9AA8958150A9F7CC24DD24C4
:107E500088248394B5E0AB2EA1E19A2EF3E0BF2EE7
:107E6000A2D0813461F49FD0082FAFD0023811F036
:107E7000013811F484E001C083E08DD089C08234E0
:107E800011F484E103C0853419F485E0A6D080C0E4
:107E9000853579F488D0E82EFF2485D0082F10E0AE
:107EA000102F00270E291F29000F111F8ED06801E7
:107EB0006FC0863521F484E090D080E0DECF843638
:107EC00009F040C070D06FD0082F6DD080E0C81688
:107ED00080E7D80618F4F601B7BEE895C0E0D1E017
:107EE00062D089930C17E1F7F0E0CF16F0E7DF06D8
:107EF00018F0F601B7BEE89568D007B600FCFDCFD4
:107F0000A601A0E0B1E02C9130E011968C91119780
:107F100090E0982F8827822B932B1296FA010C0160
:107F200087BEE89511244E5F5F4FF1E0A038BF0790
:107F300051F7F601A7BEE89507B600FCFDCF97BE46
:107F4000E89526C08437B1F42ED02DD0F82E2BD052
:107F50003CD0F601EF2C8F010F5F1F4F84911BD097
:107F6000EA94F801C1F70894C11CD11CFA94CF0C13
:107F7000D11C0EC0853739F428D08EE10CD085E9AC
:107F80000AD08FE07ACF813511F488E018D01DD067
:107F900080E101D065CF982F8091C00085FFFCCF94
:107FA0009093C60008958091C00087FFFCCF809118
:107FB000C00084FD01C0A8958091C6000895E0E648
:107FC000F0E098E1908380830895EDDF803219F02E
:107FD00088E0F5DFFFCF84E1DECF1F93182FE3DFCA
:107FE0001150E9F7F2DF1F91089580E0E8DFEE27F6
:047FF000FF270994CA
:027FFE00040479
:0400000300007E007B
:00000001FF
